:100000000C9434000C94A3040C9451000C945100F3
:100010000C9451000C9451000C9451000C9451001C
:100020000C9451000C9451000C9451000C9451000C
:100030000C9451000C9451000C946B040C945100DE
:100040000C9451000C9451000C9451000C945100EC
:100050000C9451000C9481000C9451000C945100AC
:100060000C9451000C94510011241FBECFEFD8E026
:10007000DEBFCDBF11E0A0E0B1E0EAE1F5E102C0F2
:1000800005900D92AC36B107D9F723E0ACE6B1E0AC
:1000900001C01D92A132B207E1F70E94E9010C9460
:1000A0008B0A0C940000ECE7F0E080818064808390
:1000B000EAE7F0E080818B6A8083EBE7F0E0808103
:1000C000836080830895ECE7F0E09081907F9083D7
:1000D0009081892B8083609178007091790080E015
:1000E00090E00E941A06089520E030E44CE950E4C4
:1000F0000E94A80620E030E443E055E40E940C058D
:1001000008951F920F920FB60F9211241F932F93F1
:100110003F934F935F936F937F938F939F93AF938F
:10012000BF93CF93DF93EF93FF9310E00EC0C12FE7
:10013000D0E080E00E9463000E94EB05CC0FDD1F41
:10014000CF58DE4F798368831F5F123380F310E04E
:100150000EC0C12FD0E081E00E9463000E94EB0539
:10016000CC0FDD1FCB52DE4F798368831F5F1233C4
:1001700080F385B3826085BBFF91EF91DF91CF91D2
:10018000BF91AF919F918F917F916F915F914F91AF
:100190003F912F911F910F900FBE0F901F901895B8
:1001A00087B1886387B98AB1806F8AB908951F9330
:1001B000CF93DF93EC01162F9C013695279536954A
:1001C000279536952795A5ECB0E20E949207AC01E1
:1001D000529542954F7045275F7045279A01ADECC7
:1001E000BCEC0E9492079695879596958795969573
:1001F00087959C01220F331F880F991F880F991F25
:10020000880F991F820F931F9A01281B390BEDE667
:10021000F1E020839E013695279536952795ABE72B
:10022000B4E10E949207AC01569547959A01ADEC56
:10023000BCEC0E9492079695879596958795969522
:1002400087959C01220F331F880F991F880F991FD4
:10025000880F991F820F931F9A01281B390B218346
:100260009E010E949207AC01569547955695479579
:10027000569547959A010E9492079695879596956F
:100280008795969587959C01220F331F880F991F9C
:10029000880F991F880F991F820F931F9A01281B9F
:1002A000390B2283CA01880F991F440F551F440F31
:1002B000551F440F551F480F591FC41BD50BC3832F
:1002C000A081B0E0A050BF4F8C918083A181B0E0AD
:1002D000A050BF4F8C918183A281B0E0A050BF4F4E
:1002E0008C918283A381B0E0A050BF4F8C91838317
:1002F000113021F481818068818307C0123029F494
:10030000EDE6F1E0828180688283DF91CF911F91D9
:10031000089588B1877F88B988B18F7D88B9E091C9
:100320006C01F0E0E359FE4F40818BB1806F8BB9D7
:1003300087E018C0242F30E0082E02C0359527959D
:100340000A94E2F720FF04C098B1906198B903C005
:1003500098B19F7E98B998B1986098B998B1977FF5
:1003600098B98150882334F788B1806288B988B100
:100370008F7D88B980916C01813051F028F08230F6
:1003800059F0833069F00FC08BB18F7E8BB90BC0F1
:100390008BB18F7D8BB907C08BB18F7B8BB903C0BD
:1003A0008BB18F778BB980916C018F5F80936C01DB
:1003B00080916C01843010F010926C01089523EF4D
:1003C00034E045EB5FE30E94A80608950E94A8066A
:1003D0000895CF93DF93CDB7DEB7CE5CD1090FB6CA
:1003E000F894DEBF0FBECDBF60E875E280E090E01C
:1003F0000E94BF040E94D0000E9453000E94640427
:100400000E948F04EEE6F0E0808182608083789421
:10041000F12C3DC00F2D10E0000F111FF801EF5817
:10042000FE4F6081718180E090E00E941A0620E01A
:1004300030E044EA51E40E94A8060E94740026E6D7
:1004400036E646E85FE30E94A8069801235C3D4F2C
:1004500069010E94EB05F60171836083F801EB529C
:10046000FE4F6081718180E090E00E941A062DECC1
:100470003CEC4CE85FE30E9479050E94740007544D
:100480001D4F0E94EB05F80171836083F394F1E343
:10049000FF1508F0BFCFF12C4BC00F2D10E0000F5F
:1004A000111FF801E35CFD4F80819181889FB001AD
:1004B000899F700D700D11248090A9029090AA025E
:1004C000A090AB02B090AC0280E090E00E941A06CF
:1004D000A50194010E940D056093A9027093AA02E0
:1004E0008093AB029093AC02F801E754FD4F8081FA
:1004F0009181889FB001899F700D700D11248090AB
:100500001D0390901E03A0901F03B090200380E075
:1005100090E00E941A06A50194010E940D056093C7
:100520001D0370931E0380931F0390932003F39485
:1005300021E32F1508F0B1CF6091A9027091AA02B2
:100540008091AB029091AC0220E030E048E452E4AC
:100550000E9479050E941B076093B1027093B2025A
:100560008093B3029093B4026091B1027091B20291
:100570008091B3029091B4020E94EB054B015C01A3
:1005800060911D0370911E0380911F0390912003C1
:1005900020E030E048E452E40E9479050E941B0705
:1005A0006B017C010E94EB05262E372EC701B60198
:1005B0000E94DF016093A1027093A2028093A302C4
:1005C0009093A4026091A1027091A2028091A30273
:1005D0009091A4020E94EB05C353DF4F6883CD5C6A
:1005E000D040C253DF4F7883CE5CD0406091B102DF
:1005F0007091B2028091B3029091B402A70196016A
:100600000E94E6016093A5027093A6028093A70260
:100610009093A8026091A5027091A6028091A70212
:100620009091A80220E030E048EC52E40E94790565
:100630000E94EB056B017C019401ADECBCEC0E94C7
:1006400092078C01169507951695079516950795AF
:10065000C801880F991F000F111F000F111F000FF5
:10066000111F080F191FC401801B910B8C01B401CD
:1006700080E090E00E941A0620E030E040E251E481
:100680000E9479050E94EB052B013C0194013695EF
:10069000279536952795ABE7B4E10E949207AC0108
:1006A000569547951F930F939201ADECBCEC0E94B9
:1006B00092079695879596958795969587959C012F
:1006C000220F331F880F991F880F991F880F991FBA
:1006D000820F931F481A590A5F924F925F934F936C
:1006E0008AE091E09F938F93FE0131963F01FF9343
:1006F000EF930E94A107C253DF4FF881CE5CD04038
:10070000FF93C353DF4F2881CD5CD0402F9384E209
:1007100091E09F938F932E0133E3430E511C5F9220
:100720004F920E94A1073F922F928DE391E09F93F9
:100730008F931E0185E6280E311C3F922F920E9456
:10074000A1079601ADECBCEC0E9492078C011695B6
:1007500007951695079516950795C801880F991F57
:10076000000F111F000F111F000F111F080F191F7D
:10077000F601E01BF10B8F01B60180E090E00E94D2
:100780001A0620E030E040E251E40E9479050E9420
:10079000EB05C753DF4F688379838A839B83C95CEA
:1007A000D04096013695279536952795ABE7B4E16D
:1007B0000E949207AC01569547951F930F93C7531C
:1007C000DF4F28813981C95CD040ADECBCEC0E9480
:1007D00092079695879596958795969587959C010E
:1007E000220F331F880F991F880F991F880F991F99
:1007F000820F931FC753DF4F28813981C95CD040D6
:10080000281B390BC9019F932F935F934F9385E565
:1008100091E09F938F938E0109561F4F1F930F9363
:100820000E94A1070FB6F894DEBF0FBECDBFC30173
:100830000E94EF0462E0C4010E94D700EFE4F3ECF1
:100840003197F1F700C00000C2010E94EF04C1011E
:100850000E94EF0460E0C353DF4F8881CD5CD0403D
:10086000C253DF4F9881CE5CD0400E94D7008FE406
:1008700093EC0197F1F700C0000061E0C6010E940F
:10088000D700C8010E94EF04EFE4F3EC3197F1F7D1
:1008900000C00000FFE72AE136E0F1502040304080
:1008A000E1F700C000001092A9021092AA02109273
:1008B000AB021092AC0210921D0310921E03109214
:1008C0001F0310922003A4CD82E084BD84E085BD87
:1008D00086E287BD08951F920F920FB60F921124E2
:1008E0002F933F934F935F936F937F938F939F9338
:1008F000AF93BF93EF93FF930E948901FF91EF9114
:10090000BF91AF919F918F917F916F915F914F9127
:100910003F912F910F900FBE0F901F901895E1E817
:10092000F0E080818960808387EC90E0909389007B
:1009300080938800E9E6F0E08081836080838DB356
:1009400081608DBB08951F920F920FB60F921124F4
:100950008F93EF93FF931092850010928400EAE743
:10096000F0E08081806480838DB38E7F8DBBFF91AA
:10097000EF918F910F900FBE0F901F9018951092CE
:10098000C00028E02093C10026E02093C200DC01D3
:10099000CB01880F991FAA1FBB1F880F991FAA1F81
:1009A000BB1F9C01AD01220F331F441F551F220F97
:1009B000331F441F551F60E874E88EE190E00E94E9
:1009C0007007215031093093C5002093C400089569
:1009D0009091C00095FFFCCF8093C60008951F93AF
:1009E000CF93DF93EC0110E007C0FE01E80FF91F81
:1009F00080810E94E8041F5F812F90E0FE0101903A
:100A00000020E9F73197EC1BFD0B8E179F0768F369
:100A1000DF91CF911F9108955058BB27AA270E94BC
:100A200024050C946E060E94600638F00E9467064A
:100A300020F039F49F3F19F426F40C945D060EF46F
:100A4000E095E7FB0C945706E92F0E947F0658F3C8
:100A5000BA17620773078407950720F079F4A6F5A3
:100A60000C94A1060EF4E0950B2EBA2FA02D0B01CD
:100A7000B90190010C01CA01A0011124FF27591BE3
:100A800099F0593F50F4503E68F11A16F040A22FE9
:100A9000232F342F4427585FF3CF4695379527955A
:100AA000A795F0405395C9F77EF41F16BA0B620B59
:100AB000730B840BBAF09150A1F0FF0FBB1F661FA0
:100AC000771F881FC2F70EC0BA0F621F731F841FE3
:100AD00048F4879577956795B795F7959E3F08F009
:100AE000B0CF9395880F08F09927EE0F97958795CB
:100AF00008950E948D050C946E060E94670658F0BA
:100B00000E94600640F029F45F3F29F00C945706DC
:100B100051110C94A2060C945D060E947F0668F3A6
:100B20009923B1F3552391F3951B550BBB27AA27A6
:100B300062177307840738F09F5F5F4F220F331FE0
:100B4000441FAA1FA9F335D00E2E3AF0E0E832D0A8
:100B500091505040E695001CCAF72BD0FE2F29D0AB
:100B6000660F771F881FBB1F261737074807AB077D
:100B7000B0E809F0BB0B802DBF01FF2793585F4FF2
:100B80003AF09E3F510578F00C9457060C94A2065B
:100B90005F3FE4F3983ED4F3869577956795B795D4
:100BA000F7959F5FC9F7880F911D9695879597F9DF
:100BB0000895E1E0660F771F881FBB1F6217730758
:100BC0008407BA0720F0621B730B840BBA0BEE1F6D
:100BD00088F7E09508950E94870688F09F5798F05F
:100BE000B92F9927B751B0F0E1F0660F771F881F32
:100BF000991F1AF0BA95C9F714C0B13091F00E944C
:100C0000A106B1E008950C94A106672F782F8827DC
:100C1000B85F39F0B93FCCF3869577956795B39572
:100C2000D9F73EF490958095709561957F4F8F4FE1
:100C30009F4F0895E89409C097FB3EF490958095E6
:100C4000709561957F4F8F4F9F4F9923A9F0F92F92
:100C500096E9BB279395F695879577956795B79510
:100C6000F111F8CFFAF4BB0F11F460FF1BC06F5FF6
:100C70007F4F8F4F9F4F16C0882311F096E911C008
:100C8000772321F09EE8872F762F05C0662371F029
:100C900096E8862F70E060E02AF09A95660F771F3D
:100CA000881FDAF7880F9695879597F9089597F931
:100CB0009F6780E870E060E008959FEF80EC089502
:100CC00000240A941616170618060906089500242B
:100CD0000A9412161306140605060895092E0394A5
:100CE000000C11F4882352F0BB0F40F4BF2B11F419
:100CF00060FF04C06F5F7F4F8F4F9F4F089557FD78
:100D00009058440F551F59F05F3F71F04795880F79
:100D100097FB991F61F09F3F79F087950895121610
:100D200013061406551FF2CF4695F1DF08C01616BC
:100D300017061806991FF1CF86957105610508946D
:100D40000895E894BB2766277727CB0197F9089584
:100D50000E94BB060C946E060E94600638F00E944A
:100D6000670620F0952311F00C9457060C945D064D
:100D700011240C94A2060E947F0670F3959FC1F384
:100D8000950F50E0551F629FF001729FBB27F00D39
:100D9000B11D639FAA27F00DB11DAA1F649F66278E
:100DA000B00DA11D661F829F2227B00DA11D621FDD
:100DB000739FB00DA11D621F839FA00D611D221F97
:100DC000749F3327A00D611D231F849F600D211D7B
:100DD000822F762F6A2F11249F5750409AF0F1F0FE
:100DE00088234AF0EE0FFF1FBB1F661F771F881F67
:100DF00091505040A9F79E3F510580F00C94570642
:100E00000C94A2065F3FE4F3983ED4F38695779561
:100E10006795B795F795E7959F5FC1F7FE2B880F0C
:100E2000911D9695879597F9089519F416F40C94E9
:100E30005D060C945B070E948706B8F39923C9F3FB
:100E4000B6F39F57550B87FF0E9469070024A0E661
:100E500040EA900180585695979528F4805C660F7B
:100E6000771F881F20F026173707480730F4621BCA
:100E7000730B840B202931294A2BA69517940794CC
:100E8000202531254A2758F7660F771F881F20F045
:100E900026173707480730F4620B730B840B200DBD
:100EA000311D411DA09581F7B901842F9158880FFC
:100EB0009695879508959F3F31F0915020F487953E
:100EC00077956795B795880F911D9695879597F9B2
:100ED000089591505040660F771F881FD2F70895EC
:100EE000A1E21A2EAA1BBB1BFD010DC0AA1FBB1F2E
:100EF000EE1FFF1FA217B307E407F50720F0A21BA0
:100F0000B30BE40BF50B661F771F881F991F1A940C
:100F100069F760957095809590959B01AC01BD0136
:100F2000CF010895A29FB001B39FC001A39F700D90
:100F3000811D1124911DB29F700D811D1124911DE1
:100F40000895AEE0B0E0E7EAF7E00C94620A0D899C
:100F50001E8986E08C831A8309838FEF9FE79E8327
:100F60008D83AE01475E5F4F6F89788DCE0101960C
:100F70000E94C307EF81F885E00FF11F10822E96C3
:100F8000E4E00C947E0AABE0B0E0E9ECF7E00C940E
:100F9000540A6C017B018A01FC011782168283814D
:100FA00081FFCCC1CE0101963C01F6019381F7018E
:100FB00093FD859193FF81917F01882309F4BAC144
:100FC000853239F493FD859193FF81917F018532BC
:100FD00029F4B60190E00E94BA09E7CF912C212CA8
:100FE000312CFFE1F315D8F08B3279F038F48032F0
:100FF00079F08332A1F4232D20611DC08D3261F080
:10100000803369F4232D216016C0832D8260382E31
:10101000E32DE4603E2E2AC0F32DF8601DC037FC9E
:101020002DC020ED280F2A3040F08E32B9F436FC66
:1010300081C1232D2064322E19C036FE06C08AE0FD
:10104000989E200D1124922E11C0EAE02E9E200DB4
:101050001124222EF32DF0623F2E08C08C3621F48D
:10106000832D8068382E02C0883641F4F70193FD45
:10107000859193FF81917F018111B3CF982F9F7D3F
:101080009554933028F40C5F1F4F9FE399830DC054
:10109000833631F0833771F0833509F059C021C0B0
:1010A000F801808189830E5F1F4F88248394912CDF
:1010B000530113C02801F2E04F0E511CF801A0802B
:1010C000B18036FE03C0692D70E002C06FEF7FEF84
:1010D000C5010E94AF094C018201F32DFF773F2E1D
:1010E00016C0280122E0420E511CF801A080B180F8
:1010F00036FE03C0692D70E002C06FEF7FEFC501BF
:101100000E94A4094C01F32DF0683F2E820133FCAC
:101110001BC0822D90E088169906B0F4B60180E2DB
:1011200090E00E94BA092A94F4CFF50137FC85912A
:1011300037FE81915F01B60190E00E94BA0921104B
:101140002A9421E0821A91088114910471F7E8C071
:10115000843611F0893641F5F80137FE07C0608109
:101160007181828193810C5F1F4F08C06081718102
:10117000072E000C880B990B0E5F1F4FF32DFF7687
:101180003F2E97FF09C090958095709561957F4F90
:101190008F4F9F4FF0683F2E2AE030E0A3010E945E
:1011A000F609882E861845C0853731F4232D2F7E09
:1011B000B22E2AE030E025C0932D997FB92E8F36CC
:1011C000C1F018F4883579F0B5C0803719F0883748
:1011D00021F0B0C0E92FE061BE2EB4FE0DC0FB2DA2
:1011E000F460BF2E09C034FE0AC0292F2660B22E3B
:1011F00006C028E030E005C020E130E002C020E178
:1012000032E0F801B7FE07C060817181828193816D
:101210000C5F1F4F06C06081718180E090E00E5F1F
:101220001F4FA3010E94F609882E8618FB2DFF7719
:101230003F2E36FE0DC0232D2E7FA22E891458F48A
:1012400034FE0BC032FC09C0832D8E7EA82E05C053
:10125000B82CA32C03C0B82C01C0B92CA4FE0FC01D
:10126000FE01E80DF11D8081803321F49A2D997ED5
:10127000A92E09C0A2FE06C0B394B39404C08A2D5F
:10128000867809F0B394A3FC11C0A0FE06C0B21486
:1012900088F4280C922C9B180EC0B21460F4B6018E
:1012A00080E290E00E94BA09B394F7CFB21418F428
:1012B0002B1802C0982C212CA4FE10C0B60180E38C
:1012C00090E00E94BA09A2FE17C0A1FC03C088E703
:1012D00090E002C088E590E0B6010CC08A2D8678C7
:1012E00059F0A1FE02C08BE201C080E2A7FC8DE2B2
:1012F000B60190E00E94BA09891438F4B60180E37F
:1013000090E00E94BA099A94F7CF8A94F301E80D0D
:10131000F11D8081B60190E00E94BA098110F5CFDD
:10132000222009F442CEB60180E290E00E94BA0980
:101330002A94F6CFF6018681978102C08FEF9FEF46
:101340002B96E2E10C94700AFC010590615070400C
:101350000110D8F7809590958E0F9F1F0895FC017E
:101360006150704001900110D8F7809590958E0FD4
:101370009F1F08950F931F93CF93DF93FB0123814A
:1013800021FD03C08FEF9FEF2CC022FF16C04681C6
:101390005781248135814217530744F4A081B181DC
:1013A0009D012F5F3F4F318320838C9326813781AE
:1013B0002F5F3F4F3783268314C08B01EC01FB0165
:1013C0000084F185E02D0995892BE1F6D801169668
:1013D0008D919C911797019617969C938E931697D3
:1013E000CE01DF91CF911F910F910895FA01AA27A5
:1013F000283051F1203181F1E8946F936E7F6E5F58
:101400007F4F8F4F9F4FAF4FB1E03ED0B4E03CD005
:10141000670F781F891F9A1FA11D680F791F8A1FE8
:10142000911DA11D6A0F711D811D911DA11D20D04F
:1014300009F468943F912AE0269F11243019305D09
:101440003193DEF6CF010895462F4770405D4193FA
:10145000B3E00FD0C9F7F6CF462F4F70405D4A3347
:1014600018F0495D31FD4052419302D0A9F7EACF0F
:10147000B4E0A6959795879577956795BA95C9F73E
:1014800000976105710508959B01AC010A2E069431
:101490005795479537952795BA95C9F7620F731FEA
:1014A000841F951FA01D08952F923F924F925F9227
:1014B0006F927F928F929F92AF92BF92CF92DF9264
:1014C000EF92FF920F931F93CF93DF93CDB7DEB7C9
:1014D000CA1BDB0B0FB6F894DEBF0FBECDBF09945D
:1014E0002A88398848885F846E847D848C849B84B4
:1014F000AA84B984C884DF80EE80FD800C811B81C2
:10150000AA81B981CE0FD11D0FB6F894DEBF0FBEF0
:0A151000CDBFED010895F894FFCF60
:10151A003F065B4F666D7D077F6F524D5320566FB6
:10152A006C746167652069733A20256425642E25E9
:10153A00640A0D005065616B2043757272656E74A2
:10154A002069733A202564206D410A0D00524D53DB
:10155A002043757272656E742069733A202564207F
:10156A006D410A0D00506F7765722069733A202524
:0C157A00642E256425640A0D0A0D000093
:00000001FF
