S012000032303950726F6A6563742E73726563A0
S11300000C945A000C94BE000C9477000C94770066
S11300100C9477000C9477000C9477000C94770080
S11300200C9477000C9477000C9477000C94770070
S11300300C9477000C9477000C9477000C94770060
S11300400C9477000C9477000C9477000C94770050
S11300500C9477000C9477000C9477000C94770040
S11300600C9477000C9477000C9477000C94770030
S11300700C9477000C9477000C9477000C94770020
S11300800C9477000C9477000C9477000C94770010
S11300900C9477000C9477000C9477000C94770000
S11300A00C9477000C9477000C9477000C947700F0
S11300B00C94770011241FBECFEFD8E0DEBFCDBF74
S11300C011E0A0E0B1E0E0E5F2E002C005900D929D
S11300D0A030B107D9F721E0A0E0B1E001C01D9242
S11300E0A030B207E1F70E948B000C9426010C9417
S11300F0000082E480937C0084EC80937A00109268
S11301007B0010927E00089587B1886387B98AB115
S1130110806F8AB9089560E875E280E090E00E94FB
S1130120DB000E9479000E94A0000E94A7000E94A8
S11301308400EFE6F0E08081826080837894FFCFD2
S113014082E084BD84E085BD83EC87BD0895E1E849
S1130150F0E08081886080838081846080838EE089
S113016090E09093890080938800E9E6F0E0808134
S1130170836080838DB381608DBB08951F920F923D
S11301800FB60F9211248F93EF93FF9380E4809323
S11301907C00EAE7F0E0808180648083E1E8F0E0BD
S11301A0808184608083FF91EF918F910F900FBEC7
S11301B00F901F9018951092C00028E02093C10062
S11301C026E02093C200DC01CB01880F991FAA1FEF
S11301D0BB1F880F991FAA1FBB1F9C01AD01220FD3
S11301E0331F441F551F220F331F441F551F60E840
S11301F074E88EE190E00E940401215031093093AB
S1130200C5002093C4000895A1E21A2EAA1BBB1BAB
S1130210FD010DC0AA1FBB1FEE1FFF1FA217B307CE
S1130220E407F50720F0A21BB30BE40BF50B661FE4
S1130230771F881F991F1A9469F7609570958095A8
S113024090959B01AC01BD01CF010895F894FFCFB7
S9030000FC
