S012000032303950726F6A6563742E73726563A0
S11300000C945A000C946F000C946F000C946F00C5
S11300100C946F000C946F000C946F000C946F00A0
S11300200C946F000C946F000C946F000C946F0090
S11300300C946F000C946F000C946F000C946F0080
S11300400C946F000C946F000C946F000C946F0070
S11300500C946F000C946F000C946F000C946F0060
S11300600C946F000C946F000C946F000C946F0050
S11300700C946F000C946F000C946F000C946F0040
S11300800C946F000C946F000C946F000C946F0030
S11300900C946F000C946F000C946F000C946F0020
S11300A00C946F000C946F000C946F000C946F0010
S11300B00C946F0011241FBECFEFD8E0DEBFCDBF7C
S11300C011E0A0E0B1E0E2E7FDE002C005900D928E
S11300D0A434B107D9F70E94A5000C94B7060C9478
S11300E0000082E480937C0084E880937A0010927C
S11300F07B0010927E000895ECE7F0E09081907F01
S11301009083813021F48081816080830CC08111CF
S113011005C0ECE7F0E08081808305C0ECE7F0E007
S1130120808182608083EAE7F0E08081806480835C
S113013080917A0084FFFCCF20917800809179002F
S113014090E0982F8827822B0895CF93DF93CDB723
S1130150DEB7CA59D1090FB6F894DEBF0FBECDBFC2
S113016060E875E280E090E00E9479010E947100ED
S113017083E384B98FE787B91AB8198289810E9409
S11301807C009C01220F331F220F331F820F931F09
S1130190E92EE694E694F12CB70180E090E00E9409
S11301A0B00226E636E646E050E40E94A2012CE8BE
S11301B03EE24AEB5CE30E940F020E9481026A83E2
S11301C081E0898389810E947C00BC0180E090E009
S11301D00E94B0029B01AC010E94A30120E030E028
S11301E040EA50E40E943E0320E030E040E85AE355
S11301F00E943E0326E636E646E050E40E94A20151
S11302002CE83EE24AEB5CE30E940F020E9481026A
S11302106B838A819B81899F802D11248C838A81A1
S1130220880F982F990F990F890F3A811DEC819FA0
S1130230912D1124969596959695990F292F220F15
S1130240220F920F891B1F928F931F923F9380E07E
S113025091E09F938F93CE0187599F4F9F938F93E4
S11302600E94CD038B811F928F9388E191E09F932D
S11302708F93CE01C7969F938F930E94CD038C8159
S113028024E6829F202D11248C81880F982F990FAA
S1130290990F890F4C81219F912D11249695969544
S11302A09695990F392F330F330F930F291B1F92F4
S11302B02F93819F112D1124169516951695110FC4
S11302C0912F990F990F190F811B1F928F931F92D2
S11302D04F938EE291E09F938F93CE0105969F9367
S11302E08F930E94CD030FB6F894DEBF0FBECDBF2F
S11302F044CF1092C00028E02093C10026E0209350
S1130300C200DC01CB01880F991FAA1FBB1F880FF5
S1130310991FAA1FBB1F9C01AD01220F331F441F4D
S1130320551F220F331F441F551F60E874E88EE1E8
S113033090E00E94AB03215031093093C500209313
S1130340C40008955058BB27AA270E94BA010C94F0
S113035004030E94F60238F00E94FD0220F039F4F2
S11303609F3F19F426F40C94F3020EF4E095E7FB96
S11303700C94ED02E92F0E94150358F3BA17620793
S113038073078407950720F079F4A6F50C943703D6
S11303900EF4E0950B2EBA2FA02D0B01B90190019C
S11303A00C01CA01A0011124FF27591B99F0593FE0
S11303B050F4503E68F11A16F040A22F232F342F28
S11303C04427585FF3CF469537952795A795F04076
S11303D05395C9F77EF41F16BA0B620B730B840B8B
S11303E0BAF09150A1F0FF0FBB1F661F771F881F43
S11303F0C2F70EC0BA0F621F731F841F48F487959B
S113040077956795B795F7959E3F08F0B0CF93958C
S1130410880F08F09927EE0F9795879508950E9405
S113042023020C9404030E94FD0258F00E94F60279
S113043040F029F45F3F29F00C94ED0251110C9423
S113044038030C94F3020E94150368F39923B1F363
S1130450552391F3951B550BBB27AA2762177307E6
S1130460840738F09F5F5F4F220F331F441FAA1F7A
S1130470A9F335D00E2E3AF0E0E832D09150504036
S1130480E695001CCAF72BD0FE2F29D0660F771FE4
S1130490881FBB1F261737074807AB07B0E809F0CA
S11304A0BB0B802DBF01FF2793585F4F3AF09E3F4F
S11304B0510578F00C94ED020C9438035F3FE4F39B
S11304C0983ED4F3869577956795B795F7959F5F92
S11304D0C9F7880F911D9695879597F90895E1E0DE
S11304E0660F771F881FBB1F621773078407BA073D
S11304F020F0621B730B840BBA0BEE1F88F7E09598
S113050008950E941D0388F09F5798F0B92F9927EA
S1130510B751B0F0E1F0660F771F881F991F1AF0EA
S1130520BA95C9F714C0B13091F00E943703B1E015
S113053008950C943703672F782F8827B85F39F014
S1130540B93FCCF3869577956795B395D9F73EF483
S113055090958095709561957F4F8F4F9F4F08952B
S1130560E89409C097FB3EF4909580957095619549
S11305707F4F8F4F9F4F9923A9F0F92F96E9BB27FF
S11305809395F695879577956795B795F111F8CF7B
S1130590FAF4BB0F11F460FF1BC06F5F7F4F8F4FE6
S11305A09F4F16C0882311F096E911C0772321F0DC
S11305B09EE8872F762F05C0662371F096E8862F74
S11305C070E060E02AF09A95660F771F881FDAF7CB
S11305D0880F9695879597F9089597F99F6780E80E
S11305E070E060E008959FEF80EC089500240A9481
S11305F01616170618060906089500240A941216FA
S11306001306140605060895092E0394000C11F42C
S1130610882352F0BB0F40F4BF2B11F460FF04C0D9
S11306206F5F7F4F8F4F9F4F089557FD9058440F32
S1130630551F59F05F3F71F04795880F97FB991F3D
S113064061F09F3F79F087950895121613061406FA
S1130650551FF2CF4695F1DF08C016161706180687
S1130660991FF1CF86957105610508940895E89462
S1130670BB2766277727CB0197F908950E9451037A
S11306800C9404030E94F60238F00E94FD0220F04C
S1130690952311F00C94ED020C94F30211240C94A4
S11306A038030E94150370F3959FC1F3950F50E032
S11306B0551F629FF001729FBB27F00DB11D639F10
S11306C0AA27F00DB11DAA1F649F6627B00DA11DB6
S11306D0661F829F2227B00DA11D621F739FB00D5C
S11306E0A11D621F839FA00D611D221F749F3327CC
S11306F0A00D611D231F849F600D211D822F762F65
S11307006A2F11249F5750409AF0F1F088234AF041
S1130710EE0FFF1FBB1F661F771F881F91505040AD
S1130720A9F79E3F510580F00C94ED020C94380318
S11307305F3FE4F3983ED4F3869577956795B79534
S1130740F795E7959F5FC1F7FE2B880F911D96954E
S1130750879597F90895A1E21A2EAA1BBB1BFD01E8
S11307600DC0AA1FBB1FEE1FFF1FA217B307E4078C
S1130770F50720F0A21BB30BE40BF50B661F771FE4
S1130780881F991F1A9469F76095709580959095C4
S11307909B01AC01BD01CF010895AEE0B0E0E3EDF3
S11307A0F3E00C948E060D891E8986E08C831A83EF
S11307B009838FEF9FE79E838D83AE01475E5F4F72
S11307C06F89788DCE0101960E94EF03EF81F88541
S11307D0E00FF11F10822E96E4E00C94AA06ABE021
S11307E0B0E0E5EFF3E00C9480066C017B018A0134
S11307F0FC0117821682838181FFCCC1CE01019650
S11308003C01F6019381F70193FD859193FF81915A
S11308107F01882309F4BAC1853239F493FD8591A7
S113082093FF81917F01853229F4B60190E00E9403
S1130830E605E7CF912C212C312CFFE1F315D8F0FC
S11308408B3279F038F4803279F08332A1F4232D9D
S113085020611DC08D3261F0803369F4232D216045
S113086016C0832D8260382EE32DE4603E2E2AC00C
S1130870F32DF8601DC037FC2DC020ED280F2A3061
S113088040F08E32B9F436FC81C1232D2064322E1F
S113089019C036FE06C08AE0989E200D1124922EBF
S11308A011C0EAE02E9E200D1124222EF32DF062B9
S11308B03F2E08C08C3621F4832D8068382E02C068
S11308C0883641F4F70193FD859193FF81917F016F
S11308D08111B3CF982F9F7D9554933028F40C5FEA
S11308E01F4F9FE399830DC0833631F0833771F036
S11308F0833509F059C021C0F801808189830E5FD6
S11309001F4F88248394912C530113C02801F2E0D3
S11309104F0E511CF801A080B18036FE03C0692D32
S113092070E002C06FEF7FEFC5010E94DB054C0150
S11309308201F32DFF773F2E16C0280122E0420EDC
S1130940511CF801A080B18036FE03C0692D70E00F
S113095002C06FEF7FEFC5010E94D0054C01F32D5B
S1130960F0683F2E820133FC1BC0822D90E0881674
S11309709906B0F4B60180E290E00E94E6052A945C
S1130980F4CFF50137FC859137FE81915F01B60103
S113099090E00E94E60521102A9421E0821A910831
S11309A08114910471F7E8C0843611F0893641F559
S11309B0F80137FE07C060817181828193810C5FE9
S11309C01F4F08C060817181072E000C880B990BA2
S11309D00E5F1F4FF32DFF763F2E97FF09C09095B2
S11309E08095709561957F4F8F4F9F4FF0683F2E94
S11309F02AE030E0A3010E942206882E861845C012
S1130A00853731F4232D2F7EB22E2AE030E025C025
S1130A10932D997FB92E8F36C1F018F4883579F06B
S1130A20B5C0803719F0883721F0B0C0E92FE061F4
S1130A30BE2EB4FE0DC0FB2DF460BF2E09C034FEE3
S1130A400AC0292F2660B22E06C028E030E005C077
S1130A5020E130E002C020E132E0F801B7FE07C037
S1130A6060817181828193810C5F1F4F06C0608118
S1130A70718180E090E00E5F1F4FA3010E94220667
S1130A80882E8618FB2DFF773F2E36FE0DC0232DB2
S1130A902E7FA22E891458F434FE0BC032FC09C0F8
S1130AA0832D8E7EA82E05C0B82CA32C03C0B82C91
S1130AB001C0B92CA4FE0FC0FE01E80DF11D808118
S1130AC0803321F49A2D997EA92E09C0A2FE06C076
S1130AD0B394B39404C08A2D867809F0B394A3FC2C
S1130AE011C0A0FE06C0B21488F4280C922C9B18E6
S1130AF00EC0B21460F4B60180E290E00E94E605F4
S1130B00B394F7CFB21418F42B1802C0982C212CEC
S1130B10A4FE10C0B60180E390E00E94E605A2FEA8
S1130B2017C0A1FC03C088E790E002C088E590E00C
S1130B30B6010CC08A2D867859F0A1FE02C08BE262
S1130B4001C080E2A7FC8DE2B60190E00E94E605B8
S1130B50891438F4B60180E390E00E94E6059A9483
S1130B60F7CF8A94F301E80DF11D8081B60190E07E
S1130B700E94E6058110F5CF222009F442CEB60189
S1130B8080E290E00E94E6052A94F6CFF601868181
S1130B90978102C08FEF9FEF2B96E2E10C949C06A5
S1130BA0FC010590615070400110D8F78095909534
S1130BB08E0F9F1F0895FC01615070400190011039
S1130BC0D8F7809590958E0F9F1F08950F931F93CC
S1130BD0CF93DF93FB01238121FD03C08FEF9FEFB0
S1130BE02CC022FF16C046815781248135814217CB
S1130BF0530744F4A081B1819D012F5F3F4F31839E
S1130C0020838C93268137812F5F3F4F3783268340
S1130C1014C08B01EC01FB010084F185E02D0995E2
S1130C20892BE1F6D80116968D919C911797019620
S1130C3017969C938E931697CE01DF91CF911F91B7
S1130C400F910895FA01AA27283051F1203181F13A
S1130C50E8946F936E7F6E5F7F4F8F4F9F4FAF4FC0
S1130C60B1E03ED0B4E03CD0670F781F891F9A1FD3
S1130C70A11D680F791F8A1F911DA11D6A0F711D87
S1130C80811D911DA11D20D009F468943F912AE093
S1130C90269F11243019305D3193DEF6CF0108957B
S1130CA0462F4770405D4193B3E00FD0C9F7F6CFAC
S1130CB0462F4F70405D4A3318F0495D31FD405274
S1130CC0419302D0A9F7EACFB4E0A695979587950A
S1130CD077956795BA95C9F70097610571050895E9
S1130CE09B01AC010A2E0694579547953795279595
S1130CF0BA95C9F7620F731F841F951FA01D08952D
S1130D002F923F924F925F926F927F928F929F9217
S1130D10AF92BF92CF92DF92EF92FF920F931F9305
S1130D20CF93DF93CDB7DEB7CA1BDB0B0FB6F894B6
S1130D30DEBF0FBECDBF09942A88398848885F84F6
S1130D406E847D848C849B84AA84B984C884DF8067
S1130D50EE80FD800C811B81AA81B981CE0FD11D4B
S1130D600FB6F894DEBF0FBECDBFED010895F89421
S1050D70FFCFAF
S1130D72524D5320566F6C746167652069733A2033
S1130D8225642E25640A0D005065616B204375723B
S1130D9272656E742069733A2025640A0D00506FDF
S1130DA27765722069733A2025642E256425640AC6
S1070DB20D0A0D0015
S9030000FC
