:100000000C945A000C9477000C9477000C947700B1
:100010000C9477000C9477000C9477000C94770084
:100020000C9477000C9477000C9477000C943C02AD
:100030000C9477000C9477000C9404020C947700D5
:100040000C9477000C9477000C9477000C94770054
:100050000C9477000C9477000C9477000C94770044
:100060000C9477000C9477000C9477000C94770034
:100070000C9477000C9477000C9477000C94770024
:100080000C9477000C9477000C9477000C94770014
:100090000C9477000C9477000C9477000C94770004
:1000A0000C9477000C9477000C9477000C947700F4
:1000B0000C94770011241FBECFEFD8E0DEBFCDBF78
:1000C00011E0A0E0B1E0ECE2F3E102C005900D9296
:1000D000A231B107D9F721E0A2E1B1E001C01D9240
:1000E000A731B207E1F70E94ED010C9494090C943A
:1000F000000082E480937C0084E880937A00109270
:100100007B0010927E000895ECE7F0E09081907FF4
:1001100090839081892B8083EAE7F0E0808180647E
:10012000808380917A0084FFFCCF80917800909149
:1001300079000895CF92DF92EF92FF92CF93DF93F1
:10014000EC0120E030E040E85AE36091000170915A
:10015000010180910201909103010E947B056B01D6
:100160007C01BE0180E090E00E94ED04A7019601B1
:100170000E947B050E94BE04CB01DF91CF91FF90CE
:10018000EF90DF90CF90089587B1886387B98AB1E7
:10019000806F8AB908951F93CF93DF93EC01162FD8
:1001A000E0E0F0E02DC0BF012AE0622788EE93E096
:1001B0000E945706CE010E944306AB019B01ADECA5
:1001C000BCEC0E948D069695879596958795969599
:1001D00087959C01220F331F880F991F880F991F45
:1001E000880F991F820F931F9A01281B390BD90181
:1001F000AC5FBE4F8C91DF01AD5EBE4F8C933196EC
:10020000E430F10584F280911201811308C0E0917D
:100210001201F0E0ED5EFE4F808180688083DF9107
:10022000CF911F91089588B1877F88B988B18F7D5C
:1002300088B9E0911201F0E0ED5EFE4F40818BB194
:10024000806F8BB987E018C0242F30E0082E02C0E1
:10025000359527950A94E2F720FF04C098B1906184
:1002600098B903C098B19F7E98B998B1986098B931
:1002700098B1977F98B98150882334F788B180620C
:1002800088B988B18F7D88B98BB18F7E8BB98BB1DE
:100290008F7D8BB98BB18F7B8BB98BB18F778BB9FE
:1002A0002FE78AE196E0215080409040E1F700C0BE
:1002B00000000895CF92DF92EF92FF92CF93DF93E9
:1002C000EC01562F40E0C12CD12C760110C0E42F58
:1002D000F0E0EE0FFF1FEC0FFD1FA081B1819D012B
:1002E0000E948D06C60ED71EE81EF91E4F5F4517E9
:1002F00070F3252F30E040E050E0C701B6010E94C6
:100300006B0669017A01C701B6010E94ED040E94E3
:10031000EE050E94BE04CB01DF91CF91FF90EF90DC
:10032000DF90CF900895CF92DF92EF92FF92CF931C
:10033000DF93EC01562F40E0C12CD12C760110C088
:10034000E42FF0E0EE0FFF1FEC0FFD1FA081B18145
:100350009D010E948D06C60ED71EE81EF91E4F5F36
:10036000451770F3252F30E040E050E0C701B6019B
:100370000E946B0669017A01C701B6010E94ED0473
:100380000E94EE050E94BE04CB01DF91CF91FF9049
:10039000EF90DF90CF900895BC0180E090E00E9444
:1003A000ED0423EF34E045EB5FE30E947B050E9400
:1003B000BE04CB0108959C01269FC001279F900D8C
:1003C000369F900D112408959C01269FC001279F00
:1003D000900D369F900D1124089560E875E280E03D
:1003E00090E00E9463030E9479000E94FD010E9438
:1003F00028020E94C4007894FFCF82E084BD84E08C
:1004000085BD83EC87BD08951F920F920FB60F92A2
:1004100011242F933F934F935F936F937F938F9309
:100420009F93AF93BF93EF93FF930E941301FF91AC
:10043000EF91BF91AF919F918F917F916F915F915C
:100440004F913F912F910F900FBE0F901F901895D5
:10045000E1E8F0E08081886080838081846080832F
:100460008EE090E09093890080938800EFE6F0E0C2
:1004700080818260808308951F920F920FB60F9241
:1004800011244F925F926F927F928F929F92AF92C0
:10049000BF92CF92DF92EF92FF920F931F932F9311
:1004A0003F934F935F936F937F938F939F93AF93FC
:1004B000BF93EF93FF93CF93DF93CDB7DEB7C059D0
:1004C000D140DEBFCDBF00E010E08EC080E00E94D2
:1004D00084006C0181E00E9484007C01C6010E94BE
:1004E0009A005C01C7010E949A006C010F2EF8EE81
:1004F000EF2EF3E0FF2EF02DAE9CB001AF9C700DFF
:10050000BE9C700D112480E090E00E94ED044090AC
:100510000001509001016090020170900301A3015D
:1005200092010E947B0520E030E040E85AE30E94FF
:100530007B050E94BE044B015C01CE9CB001CF9CA8
:10054000700DDE9C700D112480E090E00E94ED049F
:100550009B01AC01C301B2010E947B0520E030E0A9
:1005600040E85AE30E947B050E94BE046B017C01B7
:10057000B40180E090E00E94ED0420E030E0A901A9
:100580000E944C044801880C991CAA24A394B12C05
:10059000AC0EBD1EA80CB91C0E94BE04F5017183EF
:1005A0006083B60180E090E00E94ED049B01AC0105
:1005B0000E94E0032DEC3CEC4CE050E40E947B05F3
:1005C0009B01AC010E94E0030F2EF9ECEF2EF12C01
:1005D000F02DEC0EFD1EE80CF91C0E94BE04F70184
:1005E000718360830F5F1F4F043611050CF46ECFCB
:1005F00080E001C08F5F8436E8F364E6CE010196A7
:100600000E945A018C0164E6CE0187539F4F0E94DD
:1006100093017C010E94CC016C01B701C8010E94CA
:10062000DB017C0160E070E00E94E4014C010F2ED0
:10063000F4E6BF2EF02D61E0B09EC001B19E900D9A
:1006400011240E94CB000E94130161E0BC9CC001F8
:10065000BD9C900D11240E94CB00C8010E94B003E4
:10066000C6010E94B003C7010E94B003C4010E94EA
:10067000B0030E941301C057DE4F0FB6F894DEBFDF
:100680000FBECDBFDF91CF91FF91EF91BF91AF91A1
:100690009F918F917F916F915F914F913F912F919A
:1006A0001F910F91FF90EF90DF90CF90BF90AF9090
:1006B0009F908F907F906F905F904F900F900FBEA4
:1006C0000F901F9018951092C00028E02093C10051
:1006D00026E02093C200DC01CB01880F991FAA1FDE
:1006E000BB1F880F991FAA1FBB1F9C01AD01220FC2
:1006F000331F441F551F220F331F441F551F60E82F
:1007000074E88EE190E00E946B062150310930932D
:10071000C5002093C40008959091C00095FFFCCFC0
:100720008093C60008951F93CF93DF93EC0110E0F0
:1007300007C0FE01E80FF91F80810E948C031F5F34
:10074000812F90E0FE0101900020E9F73197EC1B2A
:10075000FD0B8E179F0768F3DF91CF911F910895CE
:100760000F931F93CF93DF93CDB7DEB764970FB688
:10077000F894DEBF0FBECDBF9F938F938EE091E0C4
:100780009F938F931F9284E18F938E010F5F1F4F72
:100790001F930F930E949C06C8010E9493030FB6FB
:1007A000F894DEBF0FBECDBF64960FB6F894DEBFDF
:1007B0000FBECDBFDF91CF911F910F91089550587B
:1007C000BB27AA270E94F7030C9441050E9433051A
:1007D00038F00E943A0520F039F49F3F19F426F4CE
:1007E0000C9430050EF4E095E7FB0C942A05E92FF4
:1007F0000E94520558F3BA176207730784079507DA
:1008000020F079F4A6F50C9474050EF4E0950B2E07
:10081000BA2FA02D0B01B90190010C01CA01A00152
:100820001124FF27591B99F0593F50F4503E68F1AD
:100830001A16F040A22F232F342F4427585FF3CFEE
:10084000469537952795A795F0405395C9F77EF4BF
:100850001F16BA0B620B730B840BBAF09150A1F008
:10086000FF0FBB1F661F771F881FC2F70EC0BA0F8E
:10087000621F731F841F48F4879577956795B79516
:10088000F7959E3F08F0B0CF9395880F08F0992711
:10089000EE0F9795879508950E9460040C9441058A
:1008A0000E943A0558F00E94330540F029F45F3F5A
:1008B00029F00C942A0551110C9475050C943005FF
:1008C0000E94520568F39923B1F3552391F3951BC8
:1008D000550BBB27AA2762177307840738F09F5F61
:1008E0005F4F220F331F441FAA1FA9F335D00E2ECE
:1008F0003AF0E0E832D091505040E695001CCAF73B
:100900002BD0FE2F29D0660F771F881FBB1F2617FD
:1009100037074807AB07B0E809F0BB0B802DBF01D4
:10092000FF2793585F4F3AF09E3F510578F00C94A3
:100930002A050C9475055F3FE4F3983ED4F3869541
:1009400077956795B795F7959F5FC9F7880F911DC4
:100950009695879597F90895E1E0660F771F881FB0
:10096000BB1F621773078407BA0720F0621B730B63
:10097000840BBA0BEE1F88F7E09508950E945A0584
:1009800088F09F5798F0B92F9927B751B0F0E1F050
:10099000660F771F881F991F1AF0BA95C9F714C000
:1009A000B13091F00E947405B1E008950C94740583
:1009B000672F782F8827B85F39F0B93FCCF3869539
:1009C00077956795B395D9F73EF490958095709596
:1009D00061957F4F8F4F9F4F0895E89409C097FB13
:1009E0003EF490958095709561957F4F8F4F9F4F06
:1009F0009923A9F0F92F96E9BB279395F69587954A
:100A000077956795B795F111F8CFFAF4BB0F11F40C
:100A100060FF1BC06F5F7F4F8F4F9F4F16C08823B3
:100A200011F096E911C0772321F09EE8872F762FE9
:100A300005C0662371F096E8862F70E060E02AF02A
:100A40009A95660F771F881FDAF7880F9695879516
:100A500097F9089597F99F6780E870E060E008953E
:100A60009FEF80EC089500240A94161617061806C6
:100A70000906089500240A941216130614060506A2
:100A80000895092E0394000C11F4882352F0BB0F33
:100A900040F4BF2B11F460FF04C06F5F7F4F8F4F96
:100AA0009F4F089557FD9058440F551F59F05F3FD1
:100AB00071F04795880F97FB991F61F09F3F79F080
:100AC00087950895121613061406551FF2CF469502
:100AD000F1DF08C0161617061806991FF1CF869584
:100AE0007105610508940895E894BB276627772768
:100AF000CB0197F908950E948E050C9441050E9440
:100B0000330538F00E943A0520F0952311F00C943B
:100B10002A050C94300511240C9475050E94520589
:100B200070F3959FC1F3950F50E0551F629FF00140
:100B3000729FBB27F00DB11D639FAA27F00DB11D59
:100B4000AA1F649F6627B00DA11D661F829F2227E2
:100B5000B00DA11D621F739FB00DA11D621F839F69
:100B6000A00D611D221F749F3327A00D611D231F3F
:100B7000849F600D211D822F762F6A2F11249F578D
:100B800050409AF0F1F088234AF0EE0FFF1FBB1F90
:100B9000661F771F881F91505040A9F79E3F51054F
:100BA00080F00C942A050C9475055F3FE4F3983EA1
:100BB000D4F3869577956795B795F795E7959F5FF9
:100BC000C1F7FE2B880F911D9695879597F908958B
:100BD00019F416F40C9430050C942E060E945A0554
:100BE000B8F39923C9F3B6F39F57550B87FF0E94BB
:100BF0003C060024A0E640EA90018058569597955F
:100C000028F4805C660F771F881F20F026173707AF
:100C1000480730F4621B730B840B202931294A2BBF
:100C2000A69517940794202531254A2758F7660F73
:100C3000771F881F20F026173707480730F4620B0C
:100C4000730B840B200D311D411DA09581F7B90157
:100C5000842F9158880F9695879508959F3F31F07E
:100C6000915020F4879577956795B795880F911DDA
:100C70009695879597F9089591505040660F771F84
:100C8000881FD2F70895AA1BBB1B51E107C0AA1FFA
:100C9000BB1FA617B70710F0A61BB70B881F991F1D
:100CA0005A95A9F780959095BC01CD01089597FBC1
:100CB000072E16F4009407D077FD09D00E94430652
:100CC00007FC05D03EF4909581959F4F089570954F
:100CD00061957F4F0895A1E21A2EAA1BBB1BFD014F
:100CE0000DC0AA1FBB1FEE1FFF1FA217B307E4070B
:100CF000F50720F0A21BB30BE40BF50B661F771F63
:100D0000881F991F1A9469F7609570958095909542
:100D10009B01AC01BD01CF010895A29FB001B39F1B
:100D2000C001A39F700D811D1124911DB29F700DF4
:100D3000811D1124911D0895AEE0B0E0E2EAF6E0D5
:100D40000C946B090D891E898F89988D26E02C8360
:100D50001A83098397FF02C080E090E801979E8381
:100D60008D83AE01455E5F4F698D7A8DCE01019610
:100D70000E94CC064D815E8157FD0AC02F813885C7
:100D8000421753070CF49A01F801E20FF31F108287
:100D90002E96E4E00C948709ABE0B0E0E2EDF6E0DB
:100DA0000C945D096C017B018A01FC01178216829B
:100DB000838181FFCCC1CE0101963C01F601938174
:100DC000F70193FD859193FF81917F01882309F4B9
:100DD000BAC1853239F493FD859193FF81917F01EA
:100DE000853229F4B60190E00E94C308E7CF912C28
:100DF000212C312CFFE1F315D8F08B3279F038F447
:100E0000803279F08332A1F4232D20611DC08D3210
:100E100061F0803369F4232D216016C0832D826038
:100E2000382EE32DE4603E2E2AC0F32DF8601DC05D
:100E300037FC2DC020ED280F2A3040F08E32B9F457
:100E400036FC81C1232D2064322E19C036FE06C027
:100E50008AE0989E200D1124922E11C0EAE02E9E69
:100E6000200D1124222EF32DF0623F2E08C08C3667
:100E700021F4832D8068382E02C0883641F4F701B2
:100E800093FD859193FF81917F018111B3CF982FBD
:100E90009F7D9554933028F40C5F1F4F9FE39983F7
:100EA0000DC0833631F0833771F0833509F059C0B6
:100EB00021C0F801808189830E5F1F4F88248394AD
:100EC000912C530113C02801F2E04F0E511CF80180
:100ED000A080B18036FE03C0692D70E002C06FEFC4
:100EE0007FEFC5010E94B8084C018201F32DFF7706
:100EF0003F2E16C0280122E0420E511CF801A080AE
:100F0000B18036FE03C0692D70E002C06FEF7FEF45
:100F1000C5010E94AD084C01F32DF0683F2E8201FF
:100F200033FC1BC0822D90E088169906B0F4B60100
:100F300080E290E00E94C3082A94F4CFF50137FCC8
:100F4000859137FE81915F01B60190E00E94C30850
:100F500021102A9421E0821A91088114910471F7DA
:100F6000E8C0843611F0893641F5F80137FE07C034
:100F700060817181828193810C5F1F4F08C0608105
:100F80007181072E000C880B990B0E5F1F4FF32DFC
:100F9000FF763F2E97FF09C09095809570956195DB
:100FA0007F4F8F4F9F4FF0683F2E2AE030E0A30124
:100FB0000E94FF08882E861845C0853731F4232DFE
:100FC0002F7EB22E2AE030E025C0932D997FB92ED6
:100FD0008F36C1F018F4883579F0B5C0803719F034
:100FE000883721F0B0C0E92FE061BE2EB4FE0DC0FD
:100FF000FB2DF460BF2E09C034FE0AC0292F2660E5
:10100000B22E06C028E030E005C020E130E002C08A
:1010100020E132E0F801B7FE07C060817181828172
:1010200093810C5F1F4F06C06081718180E090E06A
:101030000E5F1F4FA3010E94FF08882E8618FB2D0C
:10104000FF773F2E36FE0DC0232D2E7FA22E891452
:1010500058F434FE0BC032FC09C0832D8E7EA82EBE
:1010600005C0B82CA32C03C0B82C01C0B92CA4FE19
:101070000FC0FE01E80DF11D8081803321F49A2D0F
:10108000997EA92E09C0A2FE06C0B394B39404C0F1
:101090008A2D867809F0B394A3FC11C0A0FE06C087
:1010A000B21488F4280C922C9B180EC0B21460F471
:1010B000B60180E290E00E94C308B394F7CFB21467
:1010C00018F42B1802C0982C212CA4FE10C0B601D5
:1010D00080E390E00E94C308A2FE17C0A1FC03C0F9
:1010E00088E790E002C088E590E0B6010CC08A2D48
:1010F000867859F0A1FE02C08BE201C080E2A7FC15
:101100008DE2B60190E00E94C308891438F4B6015C
:1011100080E390E00E94C3089A94F7CF8A94F30189
:10112000E80DF11D8081B60190E00E94C308811096
:10113000F5CF222009F442CEB60180E290E00E9471
:10114000C3082A94F6CFF6018681978102C08FEFFB
:101150009FEF2B96E2E10C947909FC010590615018
:1011600070400110D8F7809590958E0F9F1F0895BD
:10117000FC016150704001900110D8F78095909566
:101180008E0F9F1F08950F931F93CF93DF93FB0143
:10119000238121FD03C08FEF9FEF2CC022FF16C0DB
:1011A00046815781248135814217530744F4A08139
:1011B000B1819D012F5F3F4F318320838C93268126
:1011C00037812F5F3F4F3783268314C08B01EC019B
:1011D000FB010084F185E02D0995892BE1F6D8010A
:1011E00016968D919C911797019617969C938E93C6
:1011F0001697CE01DF91CF911F910F910895FA01BB
:10120000AA27283051F1203181F1E8946F936E7F45
:101210006E5F7F4F8F4F9F4FAF4FB1E03ED0B4E036
:101220003CD0670F781F891F9A1FA11D680F791F77
:101230008A1F911DA11D6A0F711D811D911DA11D88
:1012400020D009F468943F912AE0269F1124301998
:10125000305D3193DEF6CF010895462F4770405D33
:101260004193B3E00FD0C9F7F6CF462F4F70405DE2
:101270004A3318F0495D31FD4052419302D0A9F73D
:10128000EACFB4E0A6959795879577956795BA9537
:10129000C9F700976105710508959B01AC010A2EFD
:1012A00006945795479537952795BA95C9F7620FD4
:1012B000731F841F951FA01D08952F923F924F9278
:1012C0005F926F927F928F929F92AF92BF92CF92D6
:1012D000DF92EF92FF920F931F93CF93DF93CDB7DF
:1012E000DEB7CA1BDB0B0FB6F894DEBF0FBECDBF57
:1012F00009942A88398848885F846E847D848C8428
:101300009B84AA84B984C884DF80EE80FD800C8130
:101310001B81AA81B981CE0FD11D0FB6F894DEBF13
:0C1320000FBECDBFED010895F894FFCF83
:10132C00666606403F065B4F666D7D077F6F2566E0
:02133C000A00A5
:00000001FF
